{
  "address": "0x87CA985c8F3e9b70bCCc25bb67Ae3e2F6f31F51C",
  "abi": [
    {
      "inputs": [
        {
          "internalType": "address",
          "name": "_trustedForwarder",
          "type": "address"
        }
      ],
      "stateMutability": "nonpayable",
      "type": "constructor"
    },
    {
      "inputs": [
        {
          "internalType": "address",
          "name": "",
          "type": "address"
        }
      ],
      "name": "counter",
      "outputs": [
        {
          "internalType": "uint256",
          "name": "",
          "type": "uint256"
        }
      ],
      "stateMutability": "view",
      "type": "function"
    },
    {
      "inputs": [],
      "name": "increment",
      "outputs": [],
      "stateMutability": "nonpayable",
      "type": "function"
    },
    {
      "inputs": [
        {
          "internalType": "address",
          "name": "forwarder",
          "type": "address"
        }
      ],
      "name": "isTrustedForwarder",
      "outputs": [
        {
          "internalType": "bool",
          "name": "",
          "type": "bool"
        }
      ],
      "stateMutability": "view",
      "type": "function"
    }
  ],
  "transactionHash": "0xfcb953e628a1be9f0719404f2a531739549704811622d6a2d2f33d656cbf2011",
  "args": [
    "0xde2568192B20A57dE387132b54C3fa492E334837"
  ],
  "numDeployments": 2,
  "solcInputHash": "71f5117a5a4588a325cc59484680f25e",
  "bytecode": "0x60a060405234801561001057600080fd5b5060405161046d38038061046d833981810160405281019061003291906100d1565b808073ffffffffffffffffffffffffffffffffffffffff1660808173ffffffffffffffffffffffffffffffffffffffff168152505050506100fe565b600080fd5b600073ffffffffffffffffffffffffffffffffffffffff82169050919050565b600061009e82610073565b9050919050565b6100ae81610093565b81146100b957600080fd5b50565b6000815190506100cb816100a5565b92915050565b6000602082840312156100e7576100e661006e565b5b60006100f5848285016100bc565b91505092915050565b608051610355610118600039600060b401526103556000f3fe608060405234801561001057600080fd5b50600436106100415760003560e01c8063572b6c0514610046578063c12327b814610076578063d09de08a146100a6575b600080fd5b610060600480360381019061005b9190610211565b6100b0565b60405161006d9190610259565b60405180910390f35b610090600480360381019061008b9190610211565b610108565b60405161009d919061028d565b60405180910390f35b6100ae610120565b005b60007f000000000000000000000000000000000000000000000000000000000000000073ffffffffffffffffffffffffffffffffffffffff168273ffffffffffffffffffffffffffffffffffffffff16149050919050565b60006020528060005260406000206000915090505481565b600061012a610183565b90506000808273ffffffffffffffffffffffffffffffffffffffff1673ffffffffffffffffffffffffffffffffffffffff168152602001908152602001600020600081548092919061017b906102d7565b919050555050565b600061018e336100b0565b156101a257601436033560601c90506101aa565b3390506101ab565b5b90565b600080fd5b600073ffffffffffffffffffffffffffffffffffffffff82169050919050565b60006101de826101b3565b9050919050565b6101ee816101d3565b81146101f957600080fd5b50565b60008135905061020b816101e5565b92915050565b600060208284031215610227576102266101ae565b5b6000610235848285016101fc565b91505092915050565b60008115159050919050565b6102538161023e565b82525050565b600060208201905061026e600083018461024a565b92915050565b6000819050919050565b61028781610274565b82525050565b60006020820190506102a2600083018461027e565b92915050565b7f4e487b7100000000000000000000000000000000000000000000000000000000600052601160045260246000fd5b60006102e282610274565b91507fffffffffffffffffffffffffffffffffffffffffffffffffffffffffffffffff8203610314576103136102a8565b5b60018201905091905056fea2646970667358221220a7d1a51aac259fdac97d7a0c226621fba5be5cfadad7630d97bee3f083aa899064736f6c63430008130033",
  "devdoc": {
    "kind": "dev",
    "methods": {},
    "version": 1
  },
  "userdoc": {
    "kind": "user",
    "methods": {},
    "version": 1
  },
  "storageLayout": {
    "storage": [
      {
        "astId": 79,
        "contract": "contracts/Counter.sol:Counter",
        "label": "counter",
        "offset": 0,
        "slot": "0",
        "type": "t_mapping(t_address,t_uint256)"
      }
    ],
    "types": {
      "t_address": {
        "encoding": "inplace",
        "label": "address",
        "numberOfBytes": "20"
      },
      "t_mapping(t_address,t_uint256)": {
        "encoding": "mapping",
        "key": "t_address",
        "label": "mapping(address => uint256)",
        "numberOfBytes": "32",
        "value": "t_uint256"
      },
      "t_uint256": {
        "encoding": "inplace",
        "label": "uint256",
        "numberOfBytes": "32"
      }
    }
  }
}